{
  "contractName": "SamToken",
  "abi": [
    {
      "inputs": [],
      "name": "totalSupply",
      "outputs": [
        {
          "internalType": "uint256",
          "name": "",
          "type": "uint256"
        }
      ],
      "stateMutability": "view",
      "type": "function",
      "constant": true
    },
    {
      "inputs": [],
      "name": "samToken",
      "outputs": [],
      "stateMutability": "nonpayable",
      "type": "function"
    }
  ],
  "bytecode": "0x60806040526305f5e10060005534801561001857600080fd5b5060cf806100276000396000f3fe6080604052348015600f57600080fd5b506004361060325760003560e01c806318160ddd1460375780638138d299146051575b600080fd5b603d6059565b604051604891906080565b60405180910390f35b6057605f565b005b60005481565b6064600081905550565b6000819050919050565b607a816069565b82525050565b6000602082019050609360008301846073565b9291505056fea264697066735822122028aac33c6d720f5a4f940438cd674498b00172938c122228a43c2772a585a35464736f6c634300080b0033",
  "immutableReferences": {},
  "source": "// SPDX-License-Identifier: MIT\r\npragma solidity >=0.4.22 <0.9.0;\r\n\r\ncontract SamToken {\r\n    //constructor\r\n    //set the token number of tokens\r\n    //read the total number of tokens\r\n    uint256 public totalSupply= 100000000;\r\n    \r\n    function samToken() public {\r\n        totalSupply =100;     /// the value is not taken from here\r\n    \r\n    }\r\n}\r\n",
  "sourcePath": "C:\\Users\\user\\web3war\\erc20\\contracts\\SamToken.sol",
  "compiler": {
    "name": "solc",
    "version": "0.8.11+commit.d7f03943.Emscripten.clang"
  },
  "schemaVersion": "3.4.5",
  "updatedAt": "2022-05-09T15:54:45.638Z",
  "networkType": "ethereum",
  "devdoc": {
    "kind": "dev",
    "methods": {},
    "version": 1
  },
  "userdoc": {
    "kind": "user",
    "methods": {},
    "version": 1
  }
}